:020000040800F2
:1000000000400120392300088123000881230008D3
:1000100081230008812300088123000800000000DC
:100020000000000000000000000000008123000824
:10003000812300080000000081230008E12200085D
:100040008123000881230008812300088123000800
:1000500081230008812300088123000881230008F0
:1000600081230008812300088123000881230008E0
:1000700081230008812300088123000881230008D0
:1000800081230008812300088123000881230008C0
:1000900081230008812300088123000881230008B0
:1000A00081230008812300088123000881230008A0
:1000B0008123000881230008812300088123000890
:1000C0008123000881230008812300088123000880
:1000D0008123000881230008812300088123000870
:1000E0008123000881230008812300088123000860
:1000F00081230008000000008123000881230008FC
:10010000812300088123000881230008812300083F
:1001100081230008812300088123000800000000DB
:100120008123000800000000000000000000000023
:0C01300000000000000000005FF808F173
:1001400010B5054C237833B9044B13B10448AFF311
:1001500000800123237010BDD401002000000000A6
:10016000C844000808B5034B1BB103490348AFF36B
:10017000008008BD00000000D8010020C84400082D
:10018000034613F8012B002AFBD1181A01387047D7
:1001900081F0004102E000BF83F0004330B54FEA38
:1001A00041044FEA430594EA050F08BF90EA020FA5
:1001B0001FBF54EA000C55EA020C7FEA645C7FEA38
:1001C000655C00F0E2804FEA5454D4EB5555B8BF5B
:1001D0006D420CDD2C4480EA020281EA030382EACC
:1001E000000083EA010180EA020281EA0303362D5E
:1001F00088BF30BD11F0004F4FEA01314FF4801C31
:100200004CEA113102D0404261EB410113F0004F42
:100210004FEA03334CEA133302D0524263EB4303F9
:1002200094EA050F00F0A780A4F10104D5F1200E97
:100230000DDB02FA0EFC22FA05F2801841F10001F2
:1002400003FA0EF2801843FA05F359410EE0A5F1C6
:1002500020050EF1200E012A03FA0EFC28BF4CF0F7
:10026000020C43FA05F3C01851EBE37101F00045AD
:1002700007D54FF0000EDCF1000C7EEB00006EEBBA
:100280000101B1F5801F1BD3B1F5001F0CD3490844
:100290005FEA30004FEA3C0C04F101044FEA44529B
:1002A00012F5800F80F09A80BCF1004F08BF5FEA22
:1002B000500C50F1000041EB045141EA050130BD02
:1002C0005FEA4C0C404141EB010111F4801FA4F1A5
:1002D0000104E9D191F0000F04BF01460020B1FAFA
:1002E00081F308BF2033A3F10B03B3F120020CDA32
:1002F0000C3208DD02F1140CC2F10C0201FA0CF010
:1003000021FA02F10CE002F11402D8BFC2F1200C74
:1003100001FA02F120FA0CFCDCBF41EA0C0190402A
:10032000E41AA2BF01EB0451294330BD6FEA040473
:100330001F3C1CDA0C340EDC04F11404C4F120025E
:1003400020FA04F001FA02F340EA030021FA04F370
:1003500045EA030130BDC4F10C04C4F1200220FAC7
:1003600002F001FA04F340EA0300294630BD21FA05
:1003700004F0294630BD94F0000F83F4801306BFCB
:1003800081F480110134013D4EE77FEA645C18BFBF
:100390007FEA655C29D094EA050F08BF90EA020F56
:1003A00005D054EA000C04BF1946104630BD91EA4E
:1003B000030F1EBF0021002030BD5FEA545C05D151
:1003C0004000494128BF41F0004130BD14F5800490
:1003D0003CBF01F5801130BD01F0004545F0FE4104
:1003E00041F470014FF0000030BD7FEA645C1ABF39
:1003F000194610467FEA655C1CBF0B46024650EA70
:10040000013406BF52EA033591EA030F41F400219B
:1004100030BD00BF90F0000F04BF0021704730B521
:100420004FF4806404F132044FF000054FF00001F6
:1004300050E700BF90F0000F04BF0021704730B5B7
:100440004FF4806404F1320410F0004548BF40428C
:100450004FF000013EE700BF42004FEAE2014FEAE1
:1004600031014FEA02701FBF12F07F4393F07F4FBC
:1004700081F06051704792F0000F14BF93F07F4FEE
:10048000704730B54FF4607401F0004521F0004131
:1004900020E700BF50EA010208BF704730B54FF0B7
:1004A00000050AE050EA010208BF704730B511F0BC
:1004B000004502D5404261EB41014FF4806404F1F4
:1004C00032045FEA915C3FF4DCAE4FF003025FEA76
:1004D000DC0C18BF03325FEADC0C18BF033202EBFE
:1004E000DC02C2F1200300FA03FC20FA02F001FA58
:1004F00003FE40EA0E0021FA02F11444C1E600BFF7
:1005000070B54FF0FF0C4CF4E06C1CEA11541DBFA9
:100510001CEA135594EA0C0F95EA0C0F00F0DEF874
:100520002C4481EA030621EA4C5123EA4C5350EA59
:10053000013518BF52EA033541F4801143F48013AA
:1005400038D0A0FB02CE4FF00005E1FB02E506F03B
:100550000042E0FB03E54FF00006E1FB03569CF090
:10056000000F18BF4EF0010EA4F1FF04B6F5007F96
:1005700064F5407404D25FEA4E0E6D4146EB060608
:1005800042EAC62141EA55514FEAC52040EA5E5091
:100590004FEACE2EB4F1FD0C88BFBCF5E06F1ED83B
:1005A000BEF1004F08BF5FEA500E50F1000041EB72
:1005B000045170BD06F0004646EA010140EA02001F
:1005C00081EA0301B4EB5C04C2BFD4EB0C0541EA41
:1005D000045170BD41F480114FF0000E013C00F356
:1005E000AB8014F1360FDEBF002001F0004170BD7A
:1005F000C4F10004203C35DA0C341BDC04F1140493
:10060000C4F1200500FA05F320FA04F001FA05F21E
:1006100040EA020001F0004221F0004110EBD370EB
:1006200021FA04F642EB06015EEA430E08BF20EA17
:10063000D37070BDC4F10C04C4F1200500FA04F3BA
:1006400020FA05F001FA04F240EA020001F000414C
:1006500010EBD37041F100015EEA430E08BF20EABF
:10066000D37070BDC4F1200500FA05F24EEA020E07
:1006700020FA04F301FA05F243EA020321FA04F036
:1006800001F0004121FA04F220EA020000EBD370ED
:100690005EEA430E08BF20EAD37070BD94F0000FED
:1006A0000FD101F00046400041EB010111F4801F21
:1006B00008BF013CF7D041EA060195F0000F18BFD2
:1006C000704703F00046520043EB030313F4801F0E
:1006D00008BF013DF7D043EA0603704794EA0C0FC8
:1006E0000CEA135518BF95EA0C0F0CD050EA4106DE
:1006F00018BF52EA4306D1D181EA030101F000415B
:100700004FF0000070BD50EA410606BF1046194682
:1007100052EA430619D094EA0C0F02D150EA01368E
:1007200013D195EA0C0F05D152EA03361CBF1046CF
:1007300019460AD181EA030101F0004141F0FE416E
:1007400041F470014FF0000070BD41F0FE4141F4F2
:10075000780170BD70B54FF0FF0C4CF4E06C1CEAF2
:1007600011541DBF1CEA135594EA0C0F95EA0C0FA7
:1007700000F0A7F8A4EB050481EA030E52EA033562
:100780004FEA013100F088804FEA03334FF0805583
:1007900045EA131343EA12634FEA022245EA1115B0
:1007A00045EA10654FEA00260EF000419D4208BF61
:1007B000964244F1FD0404F5407402D25B084FEA0E
:1007C0003202B61A65EB03055B084FEA32024FF4BA
:1007D00080104FF4002CB6EB020E75EB030E22BF17
:1007E000B61A754640EA0C005B084FEA3202B6EBD7
:1007F000020E75EB030E22BFB61A754640EA5C0086
:100800005B084FEA3202B6EB020E75EB030E22BF15
:10081000B61A754640EA9C005B084FEA3202B6EB16
:10082000020E75EB030E22BFB61A754640EADC00D5
:1008300055EA060E18D04FEA051545EA16754FEA37
:1008400006164FEAC30343EA52734FEAC2025FEA55
:100850001C1CC0D111F4801F0BD141EA00014FF0E4
:1008600000004FF0004CB6E711F4801F04BF0143B5
:100870000020B4F1FD0C88BFBCF5E06F3FF6AFAED1
:10088000B5EB030C04BFB6EB020C5FEA500C50F161
:10089000000041EB045170BD0EF0004E4EEA1131E4
:1008A00014EB5C04C2BFD4EB0C0541EA045170BDEB
:1008B00041F480114FF0000E013C90E645EA060E2F
:1008C0008DE60CEA135594EA0C0F08BF95EA0C0F5D
:1008D0003FF43BAF94EA0C0F0AD150EA01347FF4A5
:1008E00034AF95EA0C0F7FF425AF104619462CE77C
:1008F00095EA0C0F06D152EA03353FF4FDAE1046DF
:10090000194622E750EA410618BF52EA43067FF42F
:10091000C5AE50EA41047FF40DAF52EA43057FF4BF
:10092000EBAE12E74FF0FF3C06E000BF4FF0010CCA
:1009300002E000BF4FF0010C4DF804CD4FEA410C2E
:100940007FEA6C5C4FEA430C18BF7FEA6C5C1BD0FB
:1009500001B050EA410C0CBF52EA430C91EA030F7C
:1009600002BF90EA020F0020704710F1000F91EAD9
:10097000030F58BF994208BF90422CBFD8176FEAA7
:10098000E37040F0010070474FEA410C7FEA6C5C75
:1009900002D150EA013C07D14FEA430C7FEA6C5C7C
:1009A000D6D152EA033CD3D05DF8040B704700BFA8
:1009B0008446104662468C461946634600E000BFF6
:1009C00001B5FFF7B7FF002848BF10F1000F01BDC8
:1009D0004DF808EDFFF7F4FF0CBF012000205DF893
:1009E00008FB00BF4DF808EDFFF7EAFF34BF012018
:1009F00000205DF808FB00BF4DF808EDFFF7E0FFB1
:100A000094BF012000205DF808FB00BF4DF808ED01
:100A1000FFF7CEFF94BF012000205DF808FB00BF68
:100A20004DF808EDFFF7C4FF34BF012000205DF84A
:100A300008FB00BF4FEA410C7FEA6C5C02D150EA30
:100A4000013C0AD14FEA430C7FEA6C5C02D152EAC6
:100A5000033C02D14FF0000070474FF00100704797
:100A60004FEA410212F5001215D211D56FF47873D6
:100A7000B3EB625212D94FEAC12343F0004343EA79
:100A8000505311F0004F23FA02F018BF4042704754
:100A90004FF00000704750EA013005D111F00040DE
:100AA00008BF6FF0004070474FF00000704700BF74
:100AB000084B10B5044618684FF47A73B0FBF3F096
:100AC00000F078F8002221464FF0FF3000F03EF8A9
:100AD000002010BD0000002008B5032000F024F81D
:100AE0000020FFF7E5FF01F085FB002008BD0000B6
:100AF000024A136801331360704700BF00020020F0
:100B0000014B1868704700BF0002002013B5019028
:100B1000FFF7F6FF0446FFF7F3FF019B001B984227
:100B2000F9D302B010BD0000074A0002D36800F4F8
:100B3000E06023F4E0631B041B0C43F0BF6343F449
:100B400000330343D360704700ED00E0174B30B52E
:100B5000DC68C4F30224C4F10703251D042B28BF5D
:100B60000423062D4FF0010598BF002405FA03F376
:100B700003F1FF3388BF033C1940A14005FA04F498
:100B8000013C2240002842EA01024FEA0212AFBFB4
:100B900000F16040064B00F00F00D2B2A5BFD2B208
:100BA00000F561401A5480F8002330BD00ED00E0EC
:100BB00014ED00E00138B0F1807F0AD2F021064B3D
:100BC000064A586082F823100020072298601A60B5
:100BD00070470120704700BF10E000E000ED00E02A
:100BE000044B04281A680CBF42F0040222F00402ED
:100BF0001A60704710E000E0704708B5FFF7FCFF8F
:100C000008BD000000232DE9F74FD1F80080DFF880
:100C10009491624A38FA03F402D103B0BDE8F08F30
:100C20004FF0010E0EFA03FE18EA0E0600F0A8803F
:100C30004C6824F01007022F16D14FF00F0C4FEA2A
:100C4000D30A00EB8A0A03F0070BDAF820504FEAC8
:100C50008B0B0CFA0BFC25EA0C0C0D6905FA0BF555
:100C600045EA0C05CAF8205003254FEA430A05FA65
:100C70000AF5ED43D0F800B004F0030C0BEA050BC5
:100C80000CFA0AFC013F4CEA0B0C012FC0F800C023
:100C900011D8876807EA050BCF6807FA0AFC4CEA07
:100CA0000B078760476827EA0E0EC4F300179F40C2
:100CB00047EA0E074760C7683D408F6807FA0AF7A2
:100CC0003D43C560E5005BD54FF00F0CD9F82050CF
:100CD00023F0030745F00105C9F82050D9F820504A
:100CE00007F1804705F00105019507F5803703F00E
:100CF000030E019D4FEA8E0ED7F808A00CFA0EF5F0
:100D00002AEA050C264DA8423CD005F58065A8428C
:100D10003AD005F58065A84238D005F58065A8422F
:100D200036D005F58065A84234D005F58065A84227
:100D300032D005F58065A84214BF0725062505FABF
:100D40000EF545EA0C05BD60F743156814F4803FC5
:100D50000CBF3D4035431560556814F4003F0CBF8F
:100D60003D4035435560956814F4801F0CBF3D40ED
:100D700035439560D568A40254BF3D403543D560E6
:100D8000013347E70025DAE70125D8E70225D6E752
:100D90000325D4E70425D2E70525D0E70004014068
:100DA00000000240003802400369194214BF0120CC
:100DB000002070470AB1816170470904FBE7000019
:100DC0001C4B82B09A6812F0F00F0CD000221A4926
:100DD0000B6823F0010313430B60086800F0010067
:100DE000504002B070475A6A144912F0805F0FD029
:100DF0000A6802F4C052B2F5C05FE7D1B0F5404FC7
:100E0000E4D10D4A136843F0040313600122DEE7C6
:100E10005A6A42F080525A625A6A02F08052019233
:100E2000019A0A68596A02F4C05221F0805159624D
:100E3000E1E700BF00380240003C02400070004083
:100E400003682DE9F743D90704466AD423689A0753
:100E500000F1E6802368DE0655D5C14DAB6813F07E
:100E60000C0F40F083814FF4007393FAA3F22968CA
:100E700093FAA3F3B3FA83F3012203F01F0302FAF8
:100E800003F30B4202D0A369002B6ED0B44D206A4D
:100E90006B6803F46043984240F24A81FFF790FF89
:100EA000002862D16B68226A23F4604313436B60AD
:100EB00069684FF07F4393FAA3F3B3FA83F2E369CF
:100EC000934021F07F4213436B604FF4604393FAE9
:100ED000A3F3B3FA83F0A24BF0219A6891FAA1F13F
:100EE000B1FA81F1236A02F0F002C340581C4FF4BA
:100EF0000043CA409B4983408A5C0020D3409A4A01
:100F00001360FFF7D5FD23681D0700F19181236869
:100F1000580700F1D381626A002A40F0578200200E
:100F200024E08F4B9A6802F00C02082A07D09A68D6
:100F300002F00C020C2A1CD19B68DB0319D54FF47C
:100F4000003393FAA3F2864A116893FAA3F3B3FA33
:100F500083F3012203F01F0302FA03F30B423FF471
:100F600075AF6368002B7FF471AF012003B0BDE85B
:100F7000F08363687A4D012B20D12B6843F48033D2
:100F80002B60FFF7BDFD4FF4003580460126744FFE
:100F900095FAA5F33A6895FAA5F3B3FA83F303F04B
:100FA0001F0306FA03F313427FF450AFFFF7A8FDC7
:100FB000A0EB08006428EBD90320D7E713BB2B680C
:100FC0004FF4003623F480332B602B68012723F481
:100FD00080232B60FFF794FD804696FAA6F32A68DB
:100FE00096FAA6F3B3FA83F303F01F0307FA03F3A9
:100FF00013423FF42BAFFFF783FDA0EB08006428FA
:10100000EBD9D9E7052B2B6803D143F480232B6060
:10101000B3E723F480332B602B6823F48023AFE7FE
:101020004F4B9A6802F00C02042A07D09A6802F02B
:101030000C020C2A24D19B68DF0321D4022393FAEB
:10104000A3F2474A106893FAA3F3B3FA83F301219A
:1010500003F01F0301FA03F30342134602D0E268D0
:101060008A4282D158684FF4F85292FAA2F2B2FA48
:1010700082F122698A4020F4F8510A435A60E9E675
:10108000E268012582B395FAA5F3B3FA83F303F17D
:10109000845303F58E139B001D60FFF731FD02277B
:1010A00080462F4E97FAA7F3326897FAA7F3B3FA60
:1010B00083F303F01F0305FA03F313420DD07168A5
:1010C0004FF4F85393FAA3F3B3FA83F223699340EE
:1010D00021F4F85213437360BCE6FFF711FDA0EB57
:1010E00008000228DED967E795FAA5F3B3FA83F37F
:1010F00003F1845303F58E139B001A60FFF700FD84
:1011000002268046164F96FAA6F33A6896FAA6F398
:10111000B3FA83F303F01F0305FA03F313423FF41A
:1011200099AEFFF7EDFCA0EB08000228EBD943E7EE
:101130006B6823F4604303436B6069684FF07F433F
:1011400093FAA3F3B3FA83F2E369934021F07F4269
:1011500013436B60FFF734FE00283FF4B6AE04E79C
:1011600000380240B545000800000020A2694FF495
:101170008073002A37D093FAA3F3B3FA83F30126DE
:1011800003F1845303F58E139B001E60FFF7B8FC38
:101190004FF40077804697FAA7F32A6897FAA7F3E7
:1011A000B3FA83F303F01F0306FA03F3134213D0D9
:1011B0006B68226A23F4604313436B6069684FF0E5
:1011C0007F4393FAA3F3B3FA83F2E369934021F0E8
:1011D0007F4213436B6096E6FFF792FCA0EB08009A
:1011E0000228D8D9E8E693FAA3F3B3FA83F303F11C
:1011F000845303F58E139B001A60FFF781FC4FF4B4
:1012000000768046012796FAA6F32A6896FAA6F396
:10121000B3FA83F303F01F0307FA03F313423FF417
:1012200072AEFFF76DFCA0EB08000228EBD9C3E615
:1012300062690125A94902B395FAA5F3B3FA83F3CC
:101240000B449B001D60FFF75BFC02268046A44F09
:1012500096FAA6F37A6B96FAA6F3B3FA83F303F041
:101260001F0305FA03F313427FF451AEFFF748FC66
:10127000A0EB08000228EBD99EE695FAA5F3B3FA95
:1012800083F30B449B001A60FFF73AFC022680466A
:10129000934F96FAA6F37A6B96FAA6F3B3FA83F312
:1012A00003F01F0305FA03F313423FF430AEFFF7D8
:1012B00027FCA0EB08000228EBD97DE6884B5A6A90
:1012C000D10034D401265A6A42F080525A625B6AD5
:1012D00003F080530193019B824D2B68DA0528D5DA
:1012E000A3687F4D012B34D16B6B43F480736B6328
:1012F000FFF706FC4FF4007581460127DFF8E08117
:1013000095FAA5F3D8F8342095FAA5F3B3FA83F348
:1013100003F01F0307FA03F313424ED0002E3FF4ED
:10132000FAAD6F4A536A23F080535362F3E5002607
:10133000D2E72B6843F480732B60FFF7E1FB07468D
:101340002B68DB05CCD4FFF7DBFBC01B6428F7D987
:1013500032E623BB6B6B4FF4007723F480736B632F
:101360006B6B4FF0010823F480636B63FFF7C8FBDE
:10137000814697FAA7F36A6B97FAA7F3B3FA83F358
:1013800003F01F0308FA03F31342C7D0FFF7B8FBBB
:1013900041F28833A0EB09009842EAD90CE6052B0C
:1013A0006B6B03D143F480636B639DE723F480731D
:1013B0006B636B6B23F4806399E7FFF7A1FB41F24A
:1013C0008833A0EB090098429AD9F5E5444DAB6803
:1013D00003F00C030C2B3FF4C8AD022A4FF08073CE
:1013E00056D193FAA3F3B3FA83F3002203F18453A3
:1013F00003F58E139B001A60FFF782FB2E46804692
:101400004FF00077012597FAA7F3326897FAA7F310
:10141000B3FA83F303F01F0305FA03F3134230D149
:10142000B268A36AE16A22F47D020B431343226B84
:101430001343B3604FF0807393FAA3F3B3FA83F3CB
:1014400003F1845303F58E139B001D60FFF758FBD7
:101450004FF0007407460125214E94FAA4F3326838
:1014600094FAA4F3B3FA83F303F01F0305FA03F32A
:1014700013427FF454ADFFF743FBC01B0228ECD9A5
:101480009AE5FFF73DFBA0EB08000228BBD993E5E6
:1014900093FAA3F3B3FA83F3002203F1845303F521
:1014A0008E139B001A60FFF72BFB4FF0007407466A
:1014B000012694FAA4F32A6894FAA4F3B3FA83F306
:1014C00003F01F0306FA03F313423FF428ADFFF7BE
:1014D00017FBC01B0228ECD96EE500BFA0C191101C
:1014E00000380240007000401E4910B58B6803F0C0
:1014F0000C02082A05D00C2A05D0042A22D11A4849
:1015000010BD1A4810BD4FF4701292FAA2F2B2FA4E
:1015100082F203F4701020FA02F21548845C4FF452
:10152000400090FAA0F0B0FA80F203F440008B681B
:10153000D040DB034CBF0D4B0B4B01306343B3FB7F
:10154000F0F010BD48684FF4604393FAA3F3B3FA88
:1015500083F300F46040D840431C4FF400409840AF
:1015600010BD00BF003802400024F40000127A00D1
:10157000CD4500086A4B2DE9F0411A68064602F095
:1015800001028A420D4630D33268940740D4D00716
:1015900046D4634B1A6802F001029542C0F0AE8057
:1015A0003268510700F1B380130707D55D4A3169EE
:1015B000936823F4605343EAC1039360FFF794FFF9
:1015C000584BF0229B6892FAA2F2B2FA82F203F030
:1015D000F003D340544AD35CD840544B18600020E9
:1015E000FFF766FA0020BDE8F081012902BF1A6802
:1015F00042F004021A601A6822F001020A431A60DB
:101600001B6803F001039942BED00120BDE8F081C0
:101610004449B0688B6823F0F00303438B60B6E75E
:1016200072684049022A0FD14FF4003393FAA3F0B5
:10163000086893FAA3F3B3FA83F3012103F01F03BD
:1016400001FA03F3034213E0032A02D14FF00073BF
:10165000ECE7012A29D1022393FAA3F0096893FA4F
:10166000A3F3B3FA83F303F01F0302FA03F30B426D
:10167000CBD02C4C41F28838A36823F003031A43E3
:10168000A260FFF73DFA73680746022B10D1A368EA
:1016900003F00C03082B3FF47CAFFFF731FAC01BBB
:1016A0004045F4D90320BDE8F0814FF40073BDE755
:1016B000032B0BD1A36803F00C030C2B3FF469AF91
:1016C000FFF71EFAC01B4045F4D9EBE7012B10D100
:1016D000A36803F00C03042B3FF45BAFFFF710FA91
:1016E000C01B4045F4D9DDE7FFF70AFAC01B4045AF
:1016F000D8D8A36813F00C0FF6D14AE71A6822F085
:1017000001021A601B68DA073FF57FAF48E7054919
:10171000F0688B6823F4E06303438B6044E700BF09
:10172000003C024000380240B5450008000000209F
:10173000014B1868704700BF00000020084B4FF4B1
:10174000E0629B6892FAA2F2B2FA82F203F4E063DA
:10175000D340044AD35C044A1068D840704700BFA5
:1017600000380240C545000800000020084B4FF437
:1017700060529B6892FAA2F2B2FA82F203F46053CA
:10178000D340044AD35C044A1068D840704700BF75
:1017900000380240C5450008000000202DE9F04750
:1017A00081460568C2682B69C16923F4405313431D
:1017B0002B6183680069EA680343D9F8140022F4B6
:1017C0001642034322F00C020B431343EB606B6998
:1017D000D9F8182023F440731343B1F5004F6B611F
:1017E0007E4B7FD19D424FF0190447D1FFF7BEFFDA
:1017F00004FB00F3D9F804704FF064087F00B3FBDA
:10180000F7F3B3FBF8F31F01FFF7B0FF6043D9F81C
:1018100004305B00B0FBF3F6FFF7A8FF6043D9F894
:1018200004305B00B0FBF3F3B3FBF8F308FB136386
:10183000DB003233B3FBF8F35B0003F4F876FFF719
:1018400095FF6043D9F804205200B0FBF2FAFFF78D
:101850008DFF6043D9F804305B00B0FBF3F3B3FBBA
:10186000F8F308FB13A3DB003233B3FBF8F303F008
:1018700007033B443344AB60BDE8F087FFF75EFFEE
:1018800004FB00F3D9F804704FF064087F00B3FB49
:10189000F7F3B3FBF8F31F01FFF750FF6043D9F8EC
:1018A00004305B00B0FBF3F6FFF748FF6043D9F864
:1018B00004305B00B0FBF3F3B3FBF8F308FB1363F6
:1018C000DB003233B3FBF8F35B0003F4F876FFF789
:1018D00035FF6043D9F804205200B0FBF2FAFFF75D
:1018E0002DFFB6E79D424FF0190443D1FFF73EFFAD
:1018F00004FB00F3D9F804604FF06408B600B3FBB2
:10190000F6F3B3FBF8F31E01FFF730FF6043D9F89D
:1019100004309B00B0FBF3F7FFF728FF6043D9F8D2
:1019200004309B00B0FBF3F3B3FBF8F308FB137335
:101930001B013233B3FBF8F303F0F007FFF716FF98
:101940006043D9F804209200B0FBF2FAFFF70EFFD3
:101950006043D9F804309B00B0FBF3F3B3FBF8F31A
:1019600008FB13A31B013233B3FBF8F303F00F039F
:101970003B437FE7FFF7E2FE04FB00F3D9F8046086
:101980004FF06408B600B3FBF6F3B3FBF8F31E01A7
:10199000FFF7D4FE6043D9F804309B00B0FBF3F7A7
:1019A000FFF7CCFE6043D9F804309B00B0FBF3F3A3
:1019B000B3FBF8F308FB13731B013233B3FBF8F3EB
:1019C00003F0F007FFF7BAFE6043D9F80420920055
:1019D000B0FBF2FAFFF7B2FEBAE700BF00380140F1
:1019E000F8B504460E461546FFF78AF80746226802
:1019F000136836EA030301D10020F8BD6B1CF7D051
:101A0000C5B923680320DA6822F08002DA60DA6858
:101A100022F02002DA60DA6822F48072DA605A6911
:101A200022F001025A61012384F83930002384F83E
:101A30003830F8BDFFF764F8C01B8542D7D2E0E725
:101A400010B5044630B390F8393003F0FF021BB9EB
:101A500080F8382000F01EFC0223226884F8393018
:101A6000D368204623F40053D360FFF797FE236822
:101A700000201A6922F490421A615A6922F02A025F
:101A80005A61DA6842F40052DA600123E06384F8B4
:101A9000393010BD012010BD70B50D4690F83910D9
:101AA0000446C9B201291E4601D022294DD1002D7C
:101AB00049D0002A47D094F83830012B45D0012373
:101AC00084F838300023E36394F83930A284222B61
:101AD0000CBF32231223E28484F83930E28C8AB9B5
:101AE000324640212046FFF77BFFC0B994F83930D9
:101AF000322B0CBF2223012384F83930002384F8D1
:101B0000383070BDA368013AB3F5805FE2844FF0CE
:101B10008001324620460DD1FFF762FF08B1032055
:101B200070BD2B882268C3F308035360236943B94F
:101B30000235D3E7FFF754FF0028F0D123682A7855
:101B40005A600135CAE7012070BD022070BD000057
:101B50000D4BDA6822F08072DA60DA6842F0807247
:101B6000DA600A4B1A6822F001021A601A6842F021
:101B700001021A6000225A6000BF00BF00BF58680F
:101B8000B0FA80F040097047F0ED00E0001000E08E
:101B900037B5094C01906568FFF7CAFD074A019BFC
:101BA000B0FBF2F0434301936368019A5B1B9342DD
:101BB000FAD303B030BD00BF001000E040420F0078
:101BC000012308220349044881E80C000023CB606C
:101BD000FFF718B8800200200004024008230449DF
:101BE00004480B6000234B608B60FFF70BB800BF0D
:101BF000800200200004024010B50C4CFFF7E0FF0B
:101C0000002208212046FFF7D5F84FF4FA70FFF7BD
:101C1000BFFF204601220821FFF7CCF81E20FFF766
:101C2000B7FFBDE81040FFF7D9BF00BF0004024076
:101C300010B52820FFF7ACFF08210B48FFF7B4F8D8
:101C400050B95020FFF7A4FF08210748FFF7ACF870
:101C500010B10122054B1A70034C08212046FFF7F2
:101C6000A3F80028F9D110BD00040240F0010020C3
:101C700070B500240725104E08213046FFF794F870
:101C80000028F9D02820FFF783FF08213046FFF70E
:101C90008BF80123AB4060B924EA030408213046E5
:101CA000FFF782F80028F9D115F1FF35E4D220467C
:101CB00070BD1C43E4B2F1E7000402402DE9F0419D
:101CC000374A94B051680446106803AA1546354B4C
:101CD000009301AB03C3344B03F1080716461868A1
:101CE0005968083303C6BB423246F7D10BAA1746E0
:101CF00018681B79306033712C4B03F1200E1646A7
:101D000018685968083303C673453246F7D107AAE5
:101D100090461B783370264B03F1080E1646186860
:101D20005968083303C673453246F7D118681B79E2
:101D3000694630603371042264232046FFF7ACFE0D
:101D40004FF47A70FEF7E2FE01A9642308222046D0
:101D5000FFF7A2FE4FF47A70FEF7D8FE29466423FF
:101D60000D222046FFF798FE4FF47A70FEF7CEFE64
:101D70003946642321222046FFF78EFE4FF47A7005
:101D8000FEF7C4FE64230D2241462046FFF784FE81
:101D90004FF47A70FEF7BAFE14B0BDE8F08100BFD0
:101DA000E044000841540A00E8440008F5440008F3
:101DB00016450008F0B5C7B016460AAA04468E4676
:101DC0001546554B03F1280C174618685968083317
:101DD00003C763453A46F7D1504B06AA03F1080CF6
:101DE000174618685968083303C763453A46F7D160
:101DF000186899889B793860BB71494BB98002AAF1
:101E000003F1080C174618685968083303C763457F
:101E10003A46F7D118681B7938603B710A27BEFB38
:101E2000F7F3404A00934049012314A800F030FF23
:101E3000B6FBF7F602233B4A3B4900962DA800F07B
:101E400027FF02A8FEF79CF902A982B2642320466C
:101E5000FFF722FE4FF47A70FEF758FE2846FEF791
:101E60008FF9294682B264232046FFF715FE4FF40E
:101E70007A70FEF74BFE06A8FEF782F906A982B239
:101E800064232046FFF708FE4FF47A70FEF73EFE0B
:101E900014A8FEF775F914A982B264232046FFF74F
:101EA000FBFD4FF47A70FEF731FE02A8FEF768F9E9
:101EB00002A982B264232046FFF7EEFD4FF47A7048
:101EC000FEF724FE2846FEF75BF9294682B264231A
:101ED0002046FFF7E1FD4FF47A70FEF717FE06A8E3
:101EE000FEF74EF906A982B264232046FFF7D4FD1F
:101EF0004FF47A70FEF70AFE2DA8FEF741F964232D
:101F000082B22DA92046FFF7C7FD4FF47A70FEF785
:101F1000FDFD47B0F0BD00BF5845000880450008F2
:101F20008F45000823450008344500081E4A10B5B7
:101F3000136892B023F4C05343F400631360022388
:101F400005930E9300230F934FF4002301241022D6
:101F500010934FF4000305A8089409921193FEF71B
:101F60006FFF00B1FEE70F2203230290039004905D
:101F7000214668468DE80C00FFF7FCFA044600B1E4
:101F8000FEE7FFF7D5FB4FF47A73B0FBF3F0FEF7F3
:101F900011FE0420FEF724FE224621464FF0FF30BA
:101FA000FEF7D4FD12B010BD007000402DE980484E
:101FB0008DB0FEF791FDFFF7B9FF764B2021DA696E
:101FC000754842F00402DA61DA69002502F0040281
:101FD0000392039ADA694FF4E13742F02002DA61A2
:101FE000DA690C2602F020020492049ADA696B4C3A
:101FF00042F00102DA61DA6902F001020592059A03
:10200000DA6942F00202DA61DB69002203F00203BE
:102010000693069BFEF7CEFE4FF400530793604BEA
:1020200007A9604808930995FEF7ECFD2023079364
:10203000012307A95848089309950A95FEF7E2FD80
:102040000823594807A9079308950995FEF7DAFD73
:10205000564B204684E88800A560E56025616661EE
:10206000A561E561FFF7ECFC00B1FEE7504D514B77
:10207000A860E8602861A861E861284685E88800D2
:102080006E61FFF7DDFC00B1FEE7FFF761FD28465A
:10209000FFF714FE484E494DFFF7AEFDFFF7C8FDB0
:1020A000FFF7E6FDDFF83091DFF8308189F80000B6
:1020B000FFF7DEFD88F80000FFF7DAFDDFF820A16A
:1020C0003F4F8AF80000FFF7D3FD3870FFF7D0FDCF
:1020D0004FF00A0E39789AF800C03A4B41EA0C2CBE
:1020E000BCFBFEF1188098F8003099F80000DFF88A
:1020F000F4B043EA00208BB2CBF80030B0FBFEF323
:102100000EFB11C1304A89B2116099B20EFB130364
:10211000DFF8D4802D4FDFF8D490DFF8D4A0A8F8F2
:1021200000009BB24FF47A70A7F800C00192C9F882
:102130000010CAF80030FEF7E9FC019A2449136840
:102140003046DBF8002000F0A3FD3046FEF718F81B
:10215000314682B264232046FFF79EFCDAF8003055
:10216000D9F800201B49284600F092FD2846FEF7CA
:1021700007F8642382B229462046FFF78DFCB8F8A1
:10218000002039880A48FFF715FE4FF47A70FEF7F1
:10219000BDFC81E700380240000002409C020020A4
:1021A00000001110000802400004024000440040FA
:1021B0003C020020003801402202002004020020DE
:1021C000E202002016020020380200203402002023
:1021D0009C450008AA450008180200207D02002046
:1021E0007C020020DC02002020020020940200205B
:1021F0001C0200201FB5264B07205A6A42F00042FD
:102200005A625A6A02F000420192019A1A6A42F036
:1022100001021A621A6A02F001020292029A5A6AD2
:1022200042F080525A625B6A03F080530393039B2F
:10223000FEF77AFC00226FF00B001146FEF786FCD9
:1022400000226FF00A001146FEF780FC00226FF0BA
:1022500009001146FEF77AFC00226FF004001146D7
:10226000FEF774FC00226FF003001146FEF76EFCCF
:1022700000226FF001001146FEF768FC00224FF0CB
:10228000FF301146FEF762FC05B05DF804FB00BFAD
:10229000003802407FB502680F4B9A4218D103F50F
:1022A000FA335A6A01A942F400325A625B6A0B4857
:1022B00003F400330093009B0C2301930223029349
:1022C000012303930323049307230593FEF79AFC4A
:1022D00007B05DF804FB00BF00440040000002406E
:1022E00008B5FEF705FCBDE80840FEF786BC000017
:1022F0000E4B1A6842F480721A6099680C4A0A40C0
:102300009A601A6822F0885222F001121A601A6844
:1023100022F480221A609A6822F47D029A600022D8
:10232000DA604FF00062034B9A6070470038024059
:102330000CC0FF8800ED00E0002103E00B4B5B5870
:10234000435004310A480B4B42189A42F6D30A4ACA
:1023500002E0002342F8043B084B9A42F9D3FFF70E
:10236000C7FF00F00FF8FFF721FE7047384800085C
:1023700000000020D4010020D4010020E802002049
:10238000FEE7000070B500250C4E0D4CA41BA410F8
:10239000A54209D102F098F800250A4E0A4CA41B68
:1023A000A410A54205D170BD56F8253098470135D7
:1023B000EEE756F8253098470135F2E73048000837
:1023C000304800083048000834480008002B2DE948
:1023D000F0471E46BBBF03F100431E4600232D23DA
:1023E00088B0149F129927F02007462F1446109D9D
:1023F000DDF84CA00B7004D0452F00D1013502232D
:1024000000E0032307AA049206AA03928DE8280499
:102410002246334600F0ECFC472F804602D1119B48
:10242000DB0726D5462F08EB050911D198F80030B7
:10243000302B0AD10022002320463146FEF7C8FA8D
:1024400018B9C5F10105CAF80050DAF8003099440E
:102450000022002320463146FEF7BAFA38B930226E
:10246000079B994505D9591C07911A70F8E7CDF8D3
:102470001C904046079B159AA3EB0803136008B015
:10248000BDE8F0870346F7B5002903F8022BB6BF75
:102490002D222B2249420929427021DD0DF107022C
:1024A00017460A2691FBF6F506FB1511092D01F1D9
:1024B000300102F8011C02F1FF34294609DC3031F9
:1024C000023A04F8011CBA421C4604D3201A03B095
:1024D000F0BD2246E6E712F8011B03F8011BF2E704
:1024E00030221C46114404F8022B5970EEE700001C
:1024F0002DE9F04F91B00C461A9F93461E460546B3
:1025000001F04AFA036818460993FDF739FE0023E3
:102510000E933B680A90073323F0070303F1080288
:1025200094F81880D4F800A03A60D3E90023C4E9F5
:102530001223D4F84C90A76C29F000430B934FF072
:10254000FF32A64B38460B99FEF774FA002840F08C
:10255000F7814FF0FF32A14B38460B99FEF74CFA4A
:10256000002840F0ED810022002338464946FEF75E
:1025700039FA10B12D2384F84330994B994FB8F1B3
:10258000470F98BF1F4603234FF0000923612AF02D
:102590000403236000965B460FAA2146284600F0FC
:1025A000DFF9013040F09A804FF0FF3011B0BDE804
:1025B000F08F62680EA8531C0DF1340E4AF480634C
:1025C00041D10622626000212360019363680DF10E
:1025D00033020590029200933A464B460691CDF89D
:1025E0001080CDF80CE02846FFF7F0FE08F0DF037E
:1025F000472B074609D10D9BD81C02DB626893422A
:1026000059DDA8F102085FFA88F8B8F1650F0D9955
:1026100036D80139424604F150000D91FFF732FFE0
:102620000E9A81468318012A236102DC2268D107B1
:1026300001D5013323619DF83330002BAAD02D231F
:1026400084F84330A6E7B8F1670F02D0B8F1470F1E
:10265000B9D19AB1002106910DF133018DE80C003A
:10266000236005903A46CDF81080CDF80CE0029139
:102670004B462846FFF7AAFE0746BCE70122A1E722
:10268000B8F1660F19D1002963680CDD216113B917
:102690002268D20702D501330B4423610D9B4FF012
:1026A0000009A365C7E713B92268D00701D5023333
:1026B000F3E70123F1E74FF067080D9B0E9A934271
:1026C00005DB22682361D107E8D50133E5E7002B5C
:1026D000CCBF0123C3F102031344DEE723685A058C
:1026E00007D423693A4659462846B04701302AD1D3
:1026F0005AE7B8F1650F40F2DC80D4E912010022FC
:102700000023FEF765F9002839D00123364A5946DF
:102710002846B04701303FF447AF0E9B0D9A9A42CE
:1027200002DB2368D8070ED50A9B099A594628462A
:10273000B04701303FF438AF002704F11A080E9B70
:10274000013B9F4211DB23689F0708D5002704F156
:102750001908E3680F9A9B1A9F42C0F2E780E0686D
:102760000F9B9842B8BF184620E7012342465946BE
:102770002846B04701303FF417AF0137DFE70D9B24
:10278000002B33DC0123184A59462846B047013054
:102790003FF40AAF0D9B23B90E9B13B92368D907E9
:1027A000D1D50A9B099A59462846B04701303FF4D3
:1027B000FBAE4FF0000804F11A090D9B5B429845EF
:1027C00001DB0E9B8EE701234A4659462846B04757
:1027D00001303FF4E9AE08F10108EEE7FFFFEF7FBB
:1027E000D6450008DA450008E64500080E9AA36DB4
:1027F0009A42A8BF1A46002A904636DC4FF0000ADB
:1028000004F11A0328EAE8780B93D4F85890A9EB5E
:1028100008039A4531DB0E9B0D9A9A4238DB2368F8
:10282000DA0735D40E9B0D99A3EB0902A3EB01083F
:102830009045A8BF9046B8F1000F31DC002728EA88
:10284000E87804F11A090D9A0E9B9B1AA3EB080372
:102850009F42BFF678AF01234A4659462846B04703
:1028600001303FF4A1AE0137EDE7134659463A4631
:102870002846B0470130C1D196E601230B9A59464C
:102880002846B04701303FF48FAE0AF1010ABCE799
:102890000A9B099A59462846B0470130C2D183E6BF
:1028A000434607EB090259462846B0470130C5D1D7
:1028B0007AE60E9A012A01DCDB0734D501233A4679
:1028C00059462846B04701303FF46EAE0A9B099A3C
:1028D00059462846B04701303FF466AED4E91201AC
:1028E00000220023FEF774F850B1002704F11A0803
:1028F0000E9B013B9F420CDB4B4604F15002F2E67B
:102900000E9B7A1C013B59462846B0470130F3D153
:102910004AE60123424659462846B04701303FF473
:1029200043AE0137E4E701233A46ECE70123424690
:1029300059462846B04701303FF436AE013708E724
:102940003A464B4638464946FEF774F800283FF4AD
:1029500030AE014B014F12E6DE450008E2450008AB
:102960002DE9F04791461F468A680B690646934257
:10297000B8BF1346C9F8003091F843200C46DDF883
:10298000208012B10133C9F800302368990642BF94
:10299000D9F800300233C9F80030256815F0060573
:1029A00007D104F1190AE368D9F800209B1A9D4267
:1029B0002ADB94F843302268003318BF01239206C3
:1029C0002FD404F1430239463046C047013022D0AB
:1029D0002368E56803F00603042B18BF0025D9F827
:1029E00000204FF0000908BFAD1AA368226908BF94
:1029F00025EAE5759342C4BF9B1AED181A344D457C
:102A00001BD10020BDE8F0870123524639463046ED
:102A1000C047013003D14FF0FF30BDE8F0870135EA
:102A2000C1E73020E11881F843005A1C94F84510A2
:102A30002244023382F84310C3E701232246394679
:102A40003046C0470130E6D009F10109D7E7000060
:102A50002DE9F04317460A7E85B06E2A9846064651
:102A60000C460C9B01F1430E00F0BC801AD8632A7F
:102A70002ED00AD8002A00F0C880582A00F08A8098
:102A800004F1420584F842202AE0642A01D0692A30
:102A9000F6D121681A6811F0800F23D0111D19603A
:102AA000136827E0732A00F0B48008D86F2A2AD070
:102AB000702AE5D10A6842F020020A6003E0752A14
:102AC00021D0782ADCD178226F4984F8452064E04F
:102AD0001A6801F14205111D1960136884F842302B
:102AE0000123A3E011F0400F02F104011960D7D0D7
:102AF000B2F90030002B03DA2D225B4284F8432028
:102B000062490A2217E02068196810F0800F03D08C
:102B1000081D18600B6806E010F0400F01F104007A
:102B20001860F7D00B886F2A14BF0A220822574971
:102B3000002084F843006568002DA560C0F29C80E9
:102B4000206820F004002060002B3FD1002D40F0D1
:102B500095807546082A0BD12368DA0708D52369C2
:102B600062689A42DEBF302305F8013C05F1FF356B
:102B7000AEEB05032361CDF800803B4603AA214656
:102B80003046FFF7EDFE013055D14FF0FF3005B074
:102B9000BDE8F08381F845203C492268186812F0AE
:102BA000800F00F104051D6001D0036802E05506A6
:102BB000FBD50388D00744BF42F0200222601BB936
:102BC000226822F0200222601022B1E77546B3FB92
:102BD000F2F002FB1033CB5C05F8013D0346002800
:102BE000F5D1B7E708681A6810F0800F496904D07A
:102BF000101D18601368196007E010F0400F02F113
:102C0000040018601368F6D019800023754623610C
:102C1000B1E71A68111D196015680021626828461D
:102C200000F0D0FE08B1401B6060636823610023A0
:102C300084F843309FE723692A4639463046C04727
:102C40000130A2D023689B0707D5002504F119099C
:102C5000E368039A9B1A9D4205DBE068039B984258
:102C6000B8BF184693E701234A4639463046C04765
:102C700001308AD00135EBE7002BA7D10B7804F1A6
:102C8000420584F8423065E7F9450008E845000848
:102C90000EB44FF4027100B59CB0ADF814106FF093
:102CA0000041049107914FF6FF711DAB0290069011
:102CB000084853F8042BADF81610006802A90193D8
:102CC00001F07EFA0022029B1A701CB05DF804EB42
:102CD00003B07047040000202DE9F74F03690C6929
:102CE00080469C4200F38280013C01F1140700F110
:102CF000140657F8245056F824000135B0FBF5F5BA
:102D00004FEA840E06EB0E0307EB0E0901938DB319
:102D10004FF0000A3846B446D34650F8042B93B21D
:102D200005FB03A3120C4FEA134A05FB02A29BB258
:102D3000ABEB0303BCF800B04FEA124A5B441FFA46
:102D400082FBDCF800208145CBEB124202EB2342F0
:102D50009BB243EA02434FEA224B4CF8043BDCD2DD
:102D600056F80E3033B9019B043B9E421A4631D3CC
:102D7000C8F81040404601F046F8002826DB3046EF
:102D80004FF0000E013557F8041BD0F800C08BB28D
:102D9000AEEB03031FFA8CF213440A0CC2EB1C4285
:102DA00002EB23429BB243EA0243B9454FEA224E6B
:102DB00040F8043BE7D256F8242006EB84032AB9F6
:102DC000043B9E421A460BD3C8F81040284603B075
:102DD000BDE8F08F1268043B002AC9D1013CC4E76A
:102DE0001268043B002AEFD1013CEAE70020EEE73D
:102DF0002DE9F04F466A95B00446219DCDE90223A6
:102E00003EB9102000F0D6FD606246608660066024
:102E1000C660636A196851B15A68012393404A60D9
:102E20008B60204600F01BFE0022636A1A60039B41
:102E3000002BB7BF012300232B60039BAEBF2B6089
:102E400023F000430393DDF80C90AB4B33EA090306
:102E50001BD142F20F73209A1360029B23B9C9F36E
:102E60001300002800F08385229B53B9A34B21E077
:102E7000A34B06930833229A1360069815B0BDE859
:102E8000F08F9E4B06930333F5E7DDE902670022DE
:102E9000002330463946FDF79BFD804660B1012393
:102EA000209A1360229B002B00F05E85954B229A9E
:102EB0001360013B0693E0E712AB019313AB009361
:102EC00032463B46204601F017F8C9F30A558246C0
:102ED000002D7DD03046C7F3130343F07F5141F4FA
:102EE0004011A5F2FF35CDF840800022864BFDF75A
:102EF00053F97BA3D3E90023FDF702FB7AA3D3E9BF
:102F00000023FDF74BF9064628460F46FDF792FAD7
:102F100077A3D3E90023FDF7F3FA02460B463046C8
:102F20003946FDF73BF906460F46FDF799FD0022AD
:102F30008346002330463946FDF754FD58B15846C4
:102F4000FDF778FA02460B4630463946FDF740FD5C
:102F500008B90BF1FF3BBBF1160F58D8DDE902238E
:102F60006A4901EBCB01D1E90001FDF759FD0028C9
:102F70004FD000230BF1FF3B0D93129B5D1B6B1E8B
:102F8000079343BF0023C5F1010807934FF00008E2
:102F9000BBF1000F3FDB079BCDF830B05B440793DC
:102FA000002308931E9B092B00F2B480052BC4BF9D
:102FB000043B1E931E9BC8BF0026A3F10203D8BF8B
:102FC0000126032B00F2B280DFE803F084862D781F
:102FD000139B129D1D4405F23243202B11DD029AF2
:102FE00005F21240C3F1400322FA00F009FA03F39C
:102FF0001843FDF70FFA0123A1F1F871013D109379
:1030000073E7C3F12000029B03FA00F0F1E701230C
:10301000B2E70D90B1E7CBF1000308930023A8EBD2
:103020000B080C93BEE7012309931F9B002B40F371
:1030300080809946049300220421656A6A6001F148
:1030400014029A427AD96968204600F0D4FC636A77
:1030500028601B68B9F10E0F069300F2F080002E75
:1030600000F0ED80DDE90223BBF1000FCDE90E2376
:1030700079DD264A0BF00F034FEA2B1602EBC30350
:10308000F006D3E90023CDE90A235CD5DDE90E0182
:103090001F4B0325D3E90823FDF75CFBCDE90201B3
:1030A00006F00F061A4F002E4FD1DDE90A23DDE9A5
:1030B0000201FDF74FFBCDE902016EE00123099308
:1030C0001F9B5B4403F1010904934B46012BB8BFDE
:1030D0000123B0E70023A7E70023F0E7AFF3008068
:1030E00061436F63A787D23FB3C8608B288AC63F0E
:1030F000FB799F501344D33F0000F07F1346000834
:103100000A460008E74500080000F83F404600086E
:10311000184600080126002309961E934FF0FF333E
:1031200000220493994612231F9284E701230993F6
:10313000F4E70123049399461A46F5E76A684900C3
:1031400001326A607BE70225ACE7F10708D5DDE9CB
:103150000A01D7E90023FDF7D3F9CDE90A010135CA
:10316000761008379FE700F0A580DDE90E01CBF16E
:103170000006A24B06F00F0203EBC203D3E90023C3
:10318000FDF7BEF902250023CDE902019C4F36115F
:10319000002E40F08480002B8DD10D9B002B00F081
:1031A0008B80DDE90223CDE90A23DDE90A01002253
:1031B000944BFDF717FC00287ED0B9F1000F7BD0AF
:1031C000049B002B37DDDDE90A0100228E4BFDF761
:1031D00097F9CDE90201049E0BF1FF37013528462E
:1031E000FDF728F9DDE90223FDF78AF9874B002274
:1031F000FCF7D4FFCDE90A010B9BA3F150750B95A9
:10320000002E5CD1DDE902010022814BFCF7C4FFF6
:103210000A9A2B46CDE90201FDF702FC002840F096
:10322000F782DDE902010A9A05F10043FDF7DAFBB6
:10323000002840F0EB82DDE90E23CDE90223139B49
:10324000002BC0F25081BBF10E0F00F34C816B4B91
:1032500003EBCB03D3E90023CDE904231F9B002B11
:1032600080F2DA80B9F1000F00F3D68040F0CD8211
:10327000DDE904010022664BFDF742F9DDE9022396
:10328000FDF7C4FB4E464F46002840F0A482069B43
:10329000069A5D1C31230BF1010B13709FE2F207BC
:1032A00005D5D7E90023FDF72BF901230135761069
:1032B00008376DE7022570E75F464E468FE7069AAE
:1032C0004E4B32441192099A711E002A48D003EBEA
:1032D000C103D3E9002300204E49FDF73BFADDE9A5
:1032E0000A23FCF759FFCDE90A01069DDDE9020139
:1032F000FDF7B6FB0646FDF79DF802460B46DDE9F5
:103300000201FCF749FFDDE90A23303605F8016BBD
:10331000CDE90201FDF766FB002864D1DDE9022357
:1033200000203849FCF738FFDDE90A23FDF75AFB96
:10333000002840F0B980119B9D423FF47CAFDDE94D
:103340000A010022304BFDF7DBF80022CDE90A012B
:10335000DDE902012C4BFDF7D3F8CDE90201C5E709
:1033600003EBC101D1E90001DDE90A23FDF7C8F84B
:10337000CDE90A01069DDDE90201FDF771FB064674
:10338000FDF758F802460B46DDE90201FCF704FFA1
:103390003036119B05F8016BAB42CDE902014FF0CD
:1033A000000224D11B4BDDE90A01FCF7F7FE0246BF
:1033B0000B46DDE90201FDF733FB002874D1DDE99E
:1033C0000A2300201349FCF7E7FE02460B46DDE91D
:1033D0000201FDF707FB00283FF42DAF15F8013C73
:1033E0006A1E302B01D0BB464DE01546F6E7064B72
:1033F000FDF786F8CDE90201BDE700BF40460008B1
:10340000184600080000F03F0000244000001C4067
:10341000000014400000E03F069DDDE90267DDE9A1
:10342000042330463946FDF795F9FDF719FB804630
:10343000FDF700F8DDE90423FDF762F802460B46CC
:1034400030463946FCF7A8FE08F1300605F8016B56
:10345000069E0246AE1BB1450B4637D1FCF79EFED9
:1034600006460F4602460B46DDE90401FDF7BAFAAF
:10347000C8B9DDE9040132463B46FDF7A9FA10B1AF
:1034800018F0010F0FD15146204600F0E8FA002352
:10349000209A2B700BF101031360229B002B3FF449
:1034A000ECAC1D60E9E45F4615F8012C6B1E392A6F
:1034B00006D1069A9A4207D130231370134601377A
:1034C0001A7801321A708EE71D46EDE70022B54BDF
:1034D000FDF716F80022002306460F46FDF778FA9E
:1034E00000289CD0CFE7099A002A00F029811E9A73
:1034F000012A00F30E81109A002A00F0068103F2DF
:1035000033434546089E079A01211A4420469844B1
:10351000079200F044FB0746002D0BDD079B002BB4
:1035200008DDAB42A8BF2B46079AA8EB0308ED1AAB
:10353000D31A0793089BFBB1099B002B00F0048171
:10354000002E11DD39463246204600F0BDFB5246C2
:1035500001460746204600F02BFB51460A902046C4
:1035600000F07DFA0A9B9A46089B9A1B04D05146AC
:10357000204600F0A9FB82460121204600F00FFB07
:103580000C9B0646002B40F3E1801A46014620467C
:1035900000F09AFB1E9B0646012B40F3DA800023C5
:1035A0000893336906EB8303186900F0AAFAC0F1A7
:1035B0002000079B184410F01F0000F0F080C0F1BD
:1035C0002003042B40F3E280079BC0F11C008044E1
:1035D000054403440793B8F1000F05DD5146424608
:1035E000204600F0BFFB8246079B002B05DD3146DD
:1035F0001A46204600F0B6FB06460D9B002B00F055
:10360000D3803146504600F0FEFB002880F2CC808B
:10361000002351460A22204600F038FA099B0BF19C
:10362000FF3B8246002B00F0A981002339460A2285
:10363000204600F02BFA049B0746002B03DC1E9B60
:10364000022B00F3B980002D05DD39462A462046BD
:1036500000F088FB0746089B002B00F0108179687A
:10366000204600F0C8F905463A6907F10C0102321C
:1036700092000C3000F0B4F901222946204600F0F7
:1036800071FB07970746029BDDF8188003F00103E2
:10369000089331465046FFF71FFB0799054600F196
:1036A0003009504600F0AFFB3A46029031462046C2
:1036B00000F0C3FBC3680246002B40F0E2800146E5
:1036C0000990504600F09FFB0346099A1146204698
:1036D000099300F0C4F9099B002B40F0D4801E9A96
:1036E000002A40F0D080089A002A40F0CC80B9F13E
:1036F000390F00F0E880029B002B01DD05F1310954
:1037000008F1010588F800906BE0129BC3F13603C5
:10371000F7E6089B09F1FF36B342B7BF089B9E1B33
:10372000F21A0C9BBFBF08969B180C930026B9F1A8
:10373000000FB9BFA8EB0905002345464B46E2E65A
:10374000089E4546099FE7E6089A10E71E9B012B55
:1037500018DC029BB3B9039BC3F31303A3B9039B08
:1037600023F000431B0D1B052BB1079B08F101083B
:1037700001330793012308930C9B002B7FF411AFB7
:10378000012016E70023F6E7029BF4E73FF423AF9E
:10379000079A1C331A4498441D4413461AE70346FB
:1037A000F6E700BF00002440B9F1000F33DC1E9B98
:1037B000022B30DDCDF81090049B63B93146052211
:1037C000204600F063F901460646504600F01BFB18
:1037D00000283FF75CAD1F9B069D6FEA030B00239B
:1037E00007933146204600F03AF9002F3FF44BAEE4
:1037F000079B2BB1BB4203D01946204600F02FF99E
:103800003946204600F02BF93DE600263746E2E730
:10381000BB4637463BE5099BCDF81090002B7FF463
:1038200012AF069D31465046FFF756FA069B00F14F
:10383000300905F8019B049AEB1A9A4200F3818043
:10384000069B012AACBF9B180133984600230793BF
:1038500051460122204600F085FA3146824600F0AA
:10386000D2FA002834DC02D119F0010F30D14546DC
:1038700015F8013C6A1E302BB3D11546F8E73846DF
:10388000FFE6012322E7029A002A04DB28D11E9AD0
:1038900032BB089A22BB002B7FF732AF5146012280
:1038A000204600F05FFA3146824600F0ACFA00286C
:1038B00005DC7FF425AF19F0010F3FF421AFB9F11A
:1038C000390F7FF41BAF392308F1010808F8013CD8
:1038D000454615F8013C6A1E392B3AD001333FE0CA
:1038E000002B08F1010505DDB9F1390FEBD009F125
:1038F000010907E7069B049AEB1A9342A84605F8CC
:10390000019CA5D0514600230A22204600F0BEF8B3
:10391000079B8246BB424FF00A024FF00003079913
:10392000204604D100F0B2F807900746B1E600F057
:10393000ADF8002307900A223946204600F0A6F889
:10394000F3E7514600230A22204600F09FF8824602
:1039500068E7069B934205D13123069A0BF1010BD0
:1039600013703EE71546B4E7094BFFF7A3BA229B55
:10397000002B7FF47DAA074BFFF79CBA049B002B1A
:103980003FF74FAF1E9B022B7FF74BAF14E700BFF3
:10399000E64500080A460008044B1B68186A044BF9
:1039A000002808BF1846F030704700BF0400002010
:1039B00068000020024B0146186800F047BB00BFBA
:1039C0000400002010B5C9B202449042034601D160
:1039D000002010BD1C7801308C42F6D1184610BD75
:1039E00010B5431E0A44914200D110BD11F8014B9D
:1039F00003F8014FF7E770B5456A04460E463DB936
:103A00001020FFF7D7FF6062456085600560C560E4
:103A1000656AEB6883B1636ADB6853F82600B8B95E
:103A2000012101FA06F56A1D9200204600F0B3FA62
:103A300060B1466085600EE021220421204600F03E
:103A4000AAFA636AE860DB68002BE4D1002070BD4D
:103A5000026843F8262000230361C36070BD70B57F
:103A6000446A06460D463CB91020FFF7A3FF70627A
:103A7000446084600460C4603DB1736A6A68DB6856
:103A800053F82210296043F8225070BD2DE9F0410F
:103A90001F4606460C4600230D6901F1140EDEF8A0
:103AA0000000013381B202FB0171000C0F0C02FB1C
:103AB000007089B201EB00419D424FEA10474EF879
:103AC000041BECDCD7B1A3689D4212DB6168304671
:103AD0000131FFF790FF8046226904F10C010232A8
:103AE00092000C30FFF77CFF21463046FFF7B7FF0E
:103AF000444604EB850301355F6125612046BDE83E
:103B0000F081020C12040346B2B90304102013F032
:103B10007F4F04BF1B02083013F0704F04BF1B011E
:103B2000043013F0404F04BF9B000230002B06DB33
:103B30005B0003D5013070470020E8E72020704784
:103B40000368014613F007020BD0DA0723D4980765
:103B500049BF5B089B0801200B605CBF0B60022023
:103B6000704798B2A8B910201B0C13F0FF0F04BFC8
:103B70001B0A08301A0704BF1B0904309A0704BF48
:103B80009B080230DA0702D45B0806D001300B60D4
:103B900070471046E9E7002070472020704710B5B5
:103BA0000C460121FFF727FF01224461026110BD8D
:103BB0002DE9F74F14460A69236989469A42BEBF28
:103BC0000B46A1461C46D9F81070D4F810A0D9F8BD
:103BD0000830D9F8041007EB0A069E42C8BF01312D
:103BE000FFF709FF00F114052B46002205EB8608BC
:103BF000434516D304F1140209F1140102EB8A03C0
:103C000001EB87070193019C134694420CD8002EC8
:103C100003DD58F8043D002B54D0066103B0BDE825
:103C2000F08F43F8042BE3E7B3F800A00432BAF1B5
:103C3000000F20D0AE4689464FF0000C59F8044BD7
:103C4000BEF800B0A3B20AFB03B34FEA144BDEF890
:103C5000004063444FEA144C0AFB0BC404EB1344CA
:103C60009BB243EA04434F454FEA144C4EF8043BE1
:103C7000E4D8CEF800C032F8029CB9F1000F1FD092
:103C8000AE468C464FF0000A2B68BCF80040BEF8E8
:103C900002B09BB209FB04B4A24443EA0A434EF8C3
:103CA000043B5CF8043BBEF800401B0C09FB0343DB
:103CB000674503EB1A434FEA134AE6D8CEF80030C3
:103CC0000435A0E7013EA2E72DE9F843154612F0BE
:103CD000030206460F4607D0214C013A002354F850
:103CE0002220FFF7D3FE0746AD1035D0746A3CB9E9
:103CF0001020FFF75FFE7062446084600460C4605F
:103D0000D6F82480D8F808404CB940F271213046EA
:103D1000FFF745FF00230446C8F8080003604FF092
:103D20000008EB070AD5394622463046FFF740FF28
:103D3000814639463046FFF792FE4F466D100BD054
:103D4000206838B9224621463046FFF731FF20600F
:103D5000C0F800800446E4E73846BDE8F88300BFB9
:103D6000084700082DE9F0470C4607461646236928
:103D70004FEA621A0AEB03094968A36809F10105D1
:103D8000AB4231DB3846FFF736FE00228046114653
:103D900000F1140352452ADB20692AEAEA7A04F189
:103DA000140116F01F0203EB8A0301EB800E22D0F0
:103DB0000020C2F1200C0E689640304343F8040BFB
:103DC00051F8040B8E4520FA0CF0F4D8186008B1B5
:103DD00009F10205013D3846C8F810502146FFF7A9
:103DE0003EFE4046BDE8F08701315B00C8E743F87E
:103DF00022100132CEE7043B51F8042B8E4543F8E4
:103E0000042FF9D8E6E703690A6930B59B1A0CD18B
:103E10009200143014318418114454F8045D51F8A0
:103E2000042D954203D005D30123184630BDA0428E
:103E3000F3D3FAE74FF0FF33F7E72DE9F0470D46EC
:103E40000746114628461446FFF7DDFF061E08D137
:103E500031463846FFF7CFFD012346610361BDE8D7
:103E6000F087A4BF23462C4638466168A6BF1D468E
:103E700000260126FFF7BFFD4FF0000CC6602B693E
:103E8000266904F1140205F1140902EB860709EB17
:103E9000830800F1140152F804AB59F8045B1FFACF
:103EA0008AF36344ACB21B1B2C0CC4EB1A4404EB26
:103EB00023449BB24FEA244CC84543EA0444964647
:103EC00041F8044BE7D8BE4505D351F8043D8BB10A
:103ED0000661BDE8F0875EF8044BA2B26244131499
:103EE00003EB144392B242EA03424FEA234C41F8F7
:103EF000042BE8E7013EE8E72DE9F3411C460121E8
:103F00009046089E099DFFF776FDC4F31302C4F3A3
:103F10000A54074634BB0192B8F1000F27D002A81B
:103F200040F8088DFFF70CFE0099F0B1019AC0F13E
:103F3000200302FA03F30B43C2407B610192019B11
:103F4000002B14BF02210121BB613961C4B1A4F26D
:103F5000334404443460C0F135002860384602B070
:103F6000BDE8F08142F48012D5E77961E7E701A866
:103F7000FFF7E6FD0121019B39617B612030E5E718
:103F8000A0F2324007EB810330601869FFF7B9FDFA
:103F9000C0EB4110E1E738B502FB01F4214600F027
:103FA00055F8054618B12246002100F039FA284696
:103FB00038BD000038B50546002943D051F8043C0F
:103FC0000C1F002BB8BFE41800F032FA1E4A136829
:103FD000104633B9636014602846BDE8384000F0ED
:103FE00028BAA3420BD921686218934201BF1A680C
:103FF0005B685218226063600460EDE713465A68FC
:104000000AB1A242FAD919685818A0420BD1206807
:104010000144581882421960DED110685268014488
:1040200019605A60D8E702D90C232B60D4E72068C6
:1040300021188A4201BF1168526809182160626024
:104040005C60C9E738BD00BFF401002070B5CD1C2D
:1040500025F0030508350C2D38BF0C25002D06462C
:1040600001DBA94203D90C233360002070BD00F0AE
:10407000DFF9234A1468214691B9224C23681BB901
:10408000304600F091F920602946304600F08CF966
:10409000431C26D10C233046336000F0CAF9E4E714
:1040A0000B685B1B1AD40B2B0FD90B60CC18CD50AF
:1040B000304600F0BEF904F10B00231D20F007008C
:1040C000C31A1BD05A42E25070BD8C420BBF6368CA
:1040D0004B681360636018BF0C46E9E70C464968FB
:1040E000CAE7C41C24F00304A04205D0211A3046BC
:1040F00000F05AF90130CDD02560D9E770BD00BF7E
:10410000F4010020F80100202DE9F0478E68824676
:104110009E420C469146984635D88A8912F4906F93
:1041200031D00223256809696F1A656905EB4505D9
:1041300095FBF3F508F101033B449D4238BF1D4652
:10414000530531D52946FFF781FF064650B90C23A8
:10415000CAF80030A3894FF0FF3043F04003A38139
:10416000BDE8F0873A462169FFF73AFCA38923F4BA
:10417000906343F08003A38126613E442660464657
:104180006561ED1BA560464528BF46464946324657
:10419000206800F02BF9A36800209B1BA360236814
:1041A0001E442660BDE8F0872A4600F043F9064623
:1041B0000028E1D121695046FFF7FCFEC7E7000067
:1041C0002DE9F04F9DB003938B8980461C060D4668
:1041D00016460FD50B696BB94021FFF737FF2860F2
:1041E000286128B90C23C8F800304FF0FF30C4E034
:1041F00040236B610023099320238DF8293030235D
:104200004FF0010B8DF82A3037463C4614F8013B3D
:10421000002B3CD1B7EB060A0BD053463246294659
:104220004046FFF771FF013000F0A280099B534424
:1042300009933B78002B00F09B8000234FF0FF3266
:1042400004930793059206938DF853301A93052231
:1042500021785048FFF7B6FB671C049BD8B9D906F4
:1042600044BF20228DF853201A0744BF2B228DF81B
:10427000532022782A2A16D000210A20079A27469E
:104280003B780134303B092B50D9C9B111E0252BC3
:10429000C0D02746B9E73F4A3C46801A0BFA00F0E7
:1042A00018430490D3E7039A111D12680391002A62
:1042B00001DB079204E0524243F0020307920493A9
:1042C0003B782E2B0DD17B78791C2A2B32D1039B86
:1042D00002371A1D1B680392002BB8BF4FF0FF3343
:1042E00005932D4C032239782046FFF76BFB38B13C
:1042F0004023001B03FA00F0049B0137034304939F
:104300003978062225487E1C8DF82810FFF75AFBC5
:10431000002835D0224BFBB9039B073323F007035A
:1043200008330393099B4B4409936DE700FB02326A
:104330000121A4E700230A24184605930F463A7882
:104340000131303A092A03D9002BCAD00590C8E7B9
:1043500004FB00200123F1E703AB00932A46114B35
:1043600004A94046FEF7C4F8B0F1FF3F8146D9D119
:10437000AB895B063FF539AF09981DB0BDE8F08FFA
:1043800003AB00932A46074B04A94046FEF760FBA7
:10439000EAE700BF144700081A4700081E47000854
:1043A000F12400080941000838B50023054C0546F2
:1043B0000846236000F07AF8431C02D1236803B159
:1043C0002B6038BDE402002082B001B901A942B1DE
:1043D0004BB113780B601278101C18BF012002B08B
:1043E00070471046FBE76FF00100F8E7884210B510
:1043F00001EB020303D8421E99420CD110BD984232
:10440000F9D28118D21AD34200D110BD13F8014D50
:1044100001F8014DF7E711F8014B02F8014FEBE706
:1044200003460244934200D1704703F8011BF9E7A9
:1044300070477047F8B5074614460E4621B9114635
:10444000BDE8F840FFF702BE22B9FFF7B3FD2546ED
:104450002846F8BD00F021F884420FD9214638469D
:10446000FFF7F4FD05460028F2D031462246FFF75B
:10447000B7FA31463846FFF79DFDE9E73546E7E7ED
:1044800049B1FF2A8BBF8A230A700360012088BFCD
:104490004FF0FF3070470846704751F8040C002871
:1044A000A0F10400BCBF0B58C0187047044B024673
:1044B000196809B903491960186802441A607047FD
:1044C000FC010020E8020020F8B500BFF8BC08BCE1
:1044D0009E467047F8B500BFF8BC08BC9E467047C2
:1044E00041542B5253540A0041542B43574D4F44CF
:1044F000453D310A0041542B43574A41503D224D1E
:10450000696E68486F616E67222C22313939383202
:10451000303036220A0041542B4349504D55583D06
:10452000300A003446575932494257454B594838AA
:1045300033464600474554202F7570646174653FCB
:104540006170695F6B65793D2573266669656C648A
:1045500025643D25640D0A0041542B4349505354B2
:104560004152543D22544350222C223138342E31B2
:1045700030362E3135332E313439222C38300A0082
:1045800041542B43495053454E443D35310A004177
:10459000542B434950434C4F53450A0054656D70AA
:1045A0003A2025642E2564430A0052483A202564A7
:1045B0002E25640A00000000000000000001020334
:1045C00004060708090000000001020304030406B2
:1045D000080C10182030494E4600696E66004E41A6
:1045E0004E006E616E003000303132333435363774
:1045F0003839414243444546003031323334353650
:1046000037383961626364656600496E66696E6950
:104610007479004E614E00000080E03779C3414359
:10462000176E05B5B5B89346F5F93FE9034F384D18
:10463000321D30F94877825A3CBF737FDD4F1575C4
:10464000000000000000F03F0000000000002440D7
:1046500000000000000059400000000000408F40B2
:10466000000000000088C34000000000006AF8401D
:104670000000000080842E4100000000D012634141
:104680000000000084D797410000000065CDCD41B7
:10469000000000205FA00242000000E87648374298
:1046A000000000A2941A6D42000040E59C30A24236
:1046B0000000901EC4BCD64200003426F56B0C43AB
:1046C0000080E03779C3414300A0D8855734764352
:1046D00000C84E676DC1AB43003D9160E458E143B3
:1046E000408CB5781DAF154450EFE2D6E41A4B4428
:1046F00092D54D06CFF08044F64AE1C7022DB5446D
:10470000B49DD9794378EA440500000019000000FF
:104710007D000000232D302B2000686C4C00656666
:1047200067454647004300504F534958002E00004C
:104730002020202020202020202828282828202051
:104740002020202020202020202020202020202069
:1047500088101010101010101010101010101010E1
:1047600004040404040404040404101010101010C1
:10477000104141414141410101010101010101019A
:1047800001010101010101010101011010101010CE
:10479000104242424242420202020202020202026B
:1047A0000202020202020202020202101010102093
:1047B00000000000000000000000000000000000F9
:1047C00000000000000000000000000000000000E9
:1047D00000000000000000000000000000000000D9
:1047E00000000000000000000000000000000000C9
:1047F00000000000000000000000000000000000B9
:1048000000000000000000000000000000000000A8
:104810000000000000000000000000000000000098
:104820000000000000000000000000000000000088
:044830006501000816
:044834004101000836
:1048380068FF1F00080000200000000000000000C2
:104848000000000000000000000000000000000060
:104858000000000000000000000000000000000050
:104868000000000000000000000000000000000040
:104878000000000000000000000000000000000030
:104888000000000000000000000000000000000020
:1048980000000000000000004300000000000000CD
:1048A8000000000000000000000000000000000000
:1048B80000000000000000004300000000000000AD
:1048C80000000000000000000000000000000000E0
:1048D800000000000000000043000000000000008D
:1048E80000000000000000000000000000000000C0
:1048F800000000000000000043000000000000006D
:10490800000000000000000000000000000000009F
:10491800000000000000000043000000000000004C
:10492800000000000000000000000000000000007F
:10493800000000000000000043000000000000002C
:10494800000000000000000000000000000000005F
:10495800000000000000000043000000000000000C
:10496800000000000000000000000000000000003F
:10497800000000000000000081440008C94300084E
:10498800000000002F4700082D4700085745000881
:10499800574500085745000857450008574500087F
:1049A800574500085745000857450008574500086F
:1049B800FFFFFFFFFFFFFFFFFFFFFFFFFFFF0000FD
:1049C8000100415343494900000000000000000075
:1049D80000000000000000000000000000000000CF
:1049E8000000415343494900000000000000000056
:1049F80000000000000000000000000000000000AF
:044A080000000000AA
:040000050800233993
:00000001FF
